:03000000020100FA
:1001000012810C7800120170F9120170FA1201705C
:10011000FB12810C12811412810C120170FC12016D
:1001200070FD120170FE758901758C4C758A00D2C4
:100130008CBB3C0E7B000ABA3CF77A0009B918F177
:1001400079007F1412017DE9B5040EEAB5050AEBCA
:10015000B50606B297C29578030BD804B297D2952C
:10016000308DFD758C4CC28DDFF602013102016DC0
:1001700012811C75F00AA4F812811C282212810C2D
:1001800075F00AE984C445F0128104743B128102BF
:10019000EA75F00A84C445F0128104743B128102AE
:0C01A000EB75F00A84C445F012810422C3
:00000001FF
